:100000000C947E000C94520D0C94790D0C94A60067
:100010000C94A6000C94A6000C94A6000C94D20C90
:100020000C94A6000C94A6000C94A6000C94750CDD
:100030000C94A6000C94A6000C94A6000C94A600A8
:100040000C94A00D0C94A6000C94FA010C943202AE
:100050000C94A6000C94A6000C94A6000C94A60088
:100060000C94A6000C94A6004E414E494E4954599A
:10007000494E46CDCCCC3D0AD7233C17B7D1387773
:10008000CC2B329595E6241FB14F0A000020410089
:1000900000C84200401C4620BCBE4CCA1B0E5AAED3
:1000A000C59D74020000000800020100000304075F
:1000B0000000000000000000010204081020408041
:1000C00001020408102001020408102004040404A2
:1000D00004040404020202020202030303030303F2
:1000E00000000000250028002B0000000000240074
:1000F00027002A006202D102CE04230511241FBE6C
:10010000CFEFD8E0DEBFCDBF11E0A0E0B1E0ECE979
:10011000FFE202C005900D92A236B107D9F722E0A6
:10012000A2E6B1E001C01D92A538B207E1F710E0E8
:10013000CDE7D0E004C02197FE010E947311CA37B9
:10014000D107C9F70E9409040C94C1170C94000050
:10015000FC01918D228D892F90E0805C9F4F821B46
:1001600091098F7399270895FC01918D828D9817BD
:1001700031F0828DE80FF11D858D90E008958FEFAD
:100180009FEF0895FC01918D828D981761F0828D0B
:10019000DF01A80FB11D5D968C91928D9F5F9F73BB
:1001A000928F90E008958FEF9FEF0895FC01238DCB
:1001B000348D231738F08FE390E0821B9109830F71
:1001C000911D0895832F90E0821B91090197089556
:1001D00088E592E0892B49F088E194E0892B29F0A9
:1001E0000E94580281110E9418040895FC01848D18
:1001F000DF01A80FB11DA35ABF4F8C91248D30E0B1
:100200002F5F3F4F2F733078332334F4215031095F
:10021000206C3F6F2F5F3F4F248FA689B7898C9347
:10022000A089B1898C9180648C93938D848D98136F
:1002300006C00288F389E02D80818F7D8083089538
:10024000CF93DF93EC01888D81110FC018C00FB6DA
:1002500007FC0DC0908195FF0AC0A889B9898C91CF
:1002600085FF05C0CE010E94F600EA89FB899081D6
:1002700095FDEDCFA889B9898C9186FFE8CFDF91F4
:10028000CF9108950F931F93CF93DF93FC0181E0EB
:10029000808F938D848D981322C0A089B1898C9111
:1002A00085FD2FC01CC00FB607FC08C0E889F9897E
:1002B000808185FF03C0CE010E94F6009C8D091746
:1002C00091F38B8DFE01E80FF11DE35AFF4F108370
:1002D0000B8FEA89FB898081806280831BC0238D1C
:1002E00030E02F5F3F4F2F733078332334F42150A9
:1002F0003109206C3F6F2F5F3F4F162FEF01022F08
:10030000DDCFA689B7896C930088F189E02D8081C3
:100310008064808381E090E0DF91CF911F910F9105
:100320000895BF92CF92DF92EF92FF920F931F93A7
:10033000CF93DF93EC016A017B01B22EE889F98942
:1003400082E080834115514E61057105B1F060E096
:1003500079E08DE390E0A70196010E942B118901BD
:100360009A010150110921093109369527951795F0
:100370000795011580E11807A8F0E889F98910822E
:1003800060E874E88EE190E0A70196010E942B11CD
:10039000DA01C9010197A109B109B695A795979509
:1003A00087958C01EC85FD851083EE85FF850083A4
:1003B000188EEC89FD89B082EA89FB898081806191
:1003C0008083EA89FB89808188608083EA89FB8950
:1003D000808180688083EA89FB8980818F7D80832A
:1003E000DF91CF911F910F91FF90EF90DF90CF9011
:1003F000BF9008951F920F920FB60F9211242F9362
:100400008F939F93AF93BF93EF93FF93E09172010C
:10041000F0917301808182FD14C0E2E6F1E0A689CB
:10042000B7892C91818D8F5F8F73928D891771F0B1
:10043000DF01E18DF0E0EE59FE4F258F59968C9348
:1004400005C0E0917801F09179018081FF91EF91F1
:10045000BF91AF919F918F912F910F900FBE0F90F1
:100460001F9018951F920F920FB60F9211242F9381
:100470003F934F935F936F937F938F939F93AF932C
:10048000BF93EF93FF9382E691E00E94F600FF9105
:10049000EF91BF91AF919F918F917F916F915F91FC
:1004A0004F913F912F910F900FBE0F901F90189575
:1004B00082E691E00E94A80021E0892B09F420E067
:1004C000822F0895E2E6F1E01382128288EE93E033
:1004D000A0E0B0E084839583A683B78388E291E0AF
:1004E0009183808385EC90E09587848784EC90E00D
:1004F0009787868780EC90E0918B808B81EC90E0F1
:10050000938B828B82EC90E0958B848B86EC90E0D1
:10051000978B868B118E128E138E148E08958F9268
:100520009F92AF92BF92CF92DF92EF92FF920F9382
:100530001F93CF93DF935C017B014C0182E0880E17
:10054000911C6501E5E0CE0ED11C00E010E0F40145
:1005500061914F014AE050E0C7010E94EA09EC01B5
:100560006EE2C7010E9424098C0F9D1F080F191FFE
:100570008C149D0461F74AE050E0F5016581C701E4
:100580000E94EA09800F911FDF91CF911F910F9177
:10059000FF90EF90DF90CF90BF90AF909F908F90A3
:1005A0000895EFEFF1E08AE391E091838083128276
:1005B000138214821582089580910502909106029B
:1005C000019690930602809305020895809105029A
:1005D00090910602909308028093070210920602FF
:1005E000109205026CE371E082E691E00E940E0930
:1005F00040916B0250916C0260916D0270916E029D
:1006000022E030E082E691E00E94FB0A6FE371E0B5
:1006100082E691E00E940E09609107027091080243
:100620004AE050E082E691E00E94D30962E471E082
:1006300082E691E00E940E0940910E0150910F0157
:10064000609110017091110122E030E082E691E0AA
:100650000E94FB0A66E471E082E691E00E940E09C6
:1006600040910A0150910B0160910C0170910D01B4
:1006700022E030E082E691E00E94FB0A6AE471E049
:1006800082E691E00E940E09409106015091070117
:10069000609108017091090122E030E082E691E06A
:1006A0000E94FE0A08950895CF93DF9300D000D0F2
:1006B00000D0CDB7DEB726E040E855E260E070E05C
:1006C00082E691E00E94910162E082E00E94E50EE4
:1006D00042E050E06CED72E080E00E942F0D6EE48D
:1006E00071E0CE0101960E94C80F42E350E0BE01C6
:1006F0006F5F7F4F89E092E00E94FF0BCE01019671
:100700000E94550F66EE72E089E092E00E946D0C47
:1007100061E085E00E94E50E6FE770E085E00E94F1
:100720004D0E61E086E00E94E50E60E086E00E94EA
:10073000240F61E070E085E192E00E94E8072696D0
:100740000FB6F894DEBF0FBECDBFDF91CF910895F5
:10075000CF92DF92EF92FF920F931F936091070267
:1007600070910802072E000C880B990B0E94A412AE
:1007700060936702709368028093690290936A02A3
:1007800083E10E94310E64E170E00E941711072E90
:10079000000C880B990B0E94A41260936B0270935B
:1007A0006C0280936D0290936E02C0900601D0900F
:1007B0000701E0900801F090090100910A011091F1
:1007C0000B0120910C0130910D0140910E015091CF
:1007D0000F01609110017091110185E192E00E947A
:1007E000870785E192E00E94340560916302709171
:1007F000640280916502909166020E946C1285E00D
:100800000E944D0E1F910F91FF90EF90DF90CF90BF
:1008100008950E94F60D0E9453030E945403C8EEEF
:10082000D0E00E94A8032097E1F30E94E800F9CFEE
:10083000CF92DF92EF92FF920F931F93CF93DF93AC
:10084000CDB7DEB7AA970FB6F894DEBF0FBECDBF07
:100850004AE062E671E0CE0185960E94400BCE012F
:1008600085960E94E31062E471E0CE010D960E942D
:10087000C80FBE01635F7F4FCE0185960E9498101E
:100880006C01CE010D960E94550F66E471E0CE0119
:1008900007960E94C80FBE01695F7F4FCE01859603
:1008A0000E9498107C01CE0107960E94550F6AE4C1
:1008B00071E0CE0101960E94C80FBE016F5F7F4FAD
:1008C000CE0185960E9498108C01CE0101960E945F
:1008D000550FA6014D5F5F4F9701BE016B5D7F4FC6
:1008E000CE014F960E949D10A7014D5F5F4F98016A
:1008F000BE016B5D7F4FCE0149960E949D1029A5D8
:100900003AA5A8014D5F5F4FBE016B5D7F4FCE01E1
:1009100043960E949D10CE014F960E940B1160934A
:100920000E0170930F018093100190931101CE017D
:1009300049960E940B1160930A0170930B018093FA
:100940000C0190930D01CE0143960E940B11609310
:100950000601709307018093080190930901CE016D
:1009600043960E94550FCE0149960E94550FCE0125
:100970004F960E94550FCE0185960E94550FAA965C
:100980000FB6F894DEBF0FBECDBFDF91CF911F91A0
:100990000F91FF90EF90DF90CF900895AF92BF92AC
:1009A000CF92DF92EF92FF920F931F9364E571E075
:1009B0008DE592E00E94C80F64E571E087E592E062
:1009C0000E94C80F64E571E081E592E00E94C80FC3
:1009D000A0900A01B0900B01C0900C01D0900D01C5
:1009E000E0900E01F0900F010091100110911101A3
:1009F0001F921F92809109018F93809108018F931C
:100A0000809107018F93809106018F932BE632E04E
:100A100043E652E067E672E085E192E00E94AD08AD
:100A200089E092E00E94EA0B0F900F900F900F90D8
:100A30000F900F901F910F91FF90EF90DF90CF904C
:100A4000BF90AF90089589E092E00E94720C81E51A
:100A500092E00E94550F87E592E00E94550F8DE5C8
:100A600092E00E94550F08952F923F924F925F920D
:100A70006F927F928F929F92AF92BF92CF92DF92AE
:100A8000EF92FF920F931F93CF93DF93CDB7DEB713
:100A900062970FB6F894DEBF0FBECDBFDC01DA96C9
:100AA000FC90FF2009F442C19A8B898B0E94EA0DC9
:100AB0004B015C01E989FA8982A193A1A4A1B5A1A6
:100AC000B501A401481B590B6A0B7B0B86A597A5A2
:100AD000A0A9B1A9481759076A077B0708F425C1DF
:100AE000048CF58DE02D4080518062807380A9894F
:100AF000BA899096ED91FC919197A3019201608142
:100B00007181828193810E94881169837A838B83AA
:100B10009C83E989FA8922A533A544A555A5C3017B
:100B2000B2010E94881169877A878B879C87A9897F
:100B3000BA8950962D913D914D915C915397698161
:100B40007A818B819C810E945913E989FA8926A1B7
:100B500037A140A551A50E9489116D837E838F83A3
:100B60009887A989BA8996966D937D938D939C9366
:100B70009997DB961C91DB9711111AC01C962D9149
:100B80003D914D915C911F9769857A858B859C85F8
:100B90000E9459139B01AC016D817E818F819885E4
:100BA0000E948811E989FA8966A377A380A791A793
:100BB000A989BA8996968D919D910D90BC91A02D91
:100BC0008D839E83AF83B887E989FA89E6A837A821
:100BD00020ACD1AC2E2D332D422D5D2DBC01CD018D
:100BE0000E94541318165CF48E2D932DA22DBD2D4A
:100BF000E989FA8986A397A3A0A7B1A720C0A989EC
:100C0000BA89D2968D919D910D90BC91A02D8D8722
:100C10009E87AF87B88B9C01AD016D817E818F81EE
:100C200098850E94F511882354F48D859E85AF85A3
:100C3000B889E989FA8986A397A3A0A7B1A7112348
:100C400099F0A989BA891C962D913D914D915C919D
:100C50001F9769817A818B819C810E9459136983D6
:100C60007A838B839C8304C019821A821B821C8224
:100C7000E989FA89248935894689578969857A8578
:100C80008B859C850E9459139B01AC01A989BA8967
:100C900096966D917D918D919C9199970E94881166
:100CA00029813A814B815C810E948911162F7983B9
:100CB000C82E092F262F372F482F592F6E2D732D11
:100CC000822D9D2D0E94F5118823B4F0E989FA89BF
:100CD000E2A833A824A8D5A82E2D332D422D5D2DB2
:100CE000612F79818C2D902F0E94F511882324F09B
:100CF000E12E39802C2CD02EA989BA895E96ED91EF
:100D0000FC915F978E2D932DA22DBD2D8083918315
:100D1000A283B383E989FA8942A653A664A675A67D
:100D200082A293A2A4A2B5A201C0F12C8F2D62963B
:100D30000FB6F894DEBF0FBECDBFDF91CF911F91EC
:100D40000F91FF90EF90DF90CF90BF90AF909F906A
:100D50008F907F906F905F904F903F902F9008956D
:100D60002F923F924F925F926F927F928F929F92BB
:100D7000AF92BF92CF92DF92EF92FF920F931F93A9
:100D8000CF93DF93CDB7DEB728970FB6F894DEBFC9
:100D90000FBECDBF1C012A013B0109831A832B839F
:100DA0003C8320E030E0A901C301B2010E94F511AB
:100DB00088230CF493C020E030E0A90169817A8196
:100DC0008B819C810E94F51188230CF487C020E060
:100DD00030E0A901C701B6010E94F51188230CF487
:100DE0007DC0D1015B96BC92AE925A9781E0AA94E5
:100DF000AB2809F080E0F10183AF4082518262822A
:100E0000738289819A81AB81BC8184839583A68317
:100E1000B783C086D186E286F38666A577A580A9CA
:100E200091A90E94A21220E030E04AE754E40E9417
:100E3000FA116D837E838F839887F10144865586EE
:100E4000668677869B01AC0169817A818B819C8162
:100E50000E9459134B015C01D10150966D937D9313
:100E60008D939C9353972D813E814F815885C70167
:100E7000B6010E94FA116B017C01F101648B758B44
:100E8000868B978B808D918D019741F5A3019201FF
:100E900060E070E0CB010E948811D1011C966D9337
:100EA0007D938D939C931F97A501940160E070E062
:100EB000CB010E948811F101608B718B828B938B27
:100EC000A701960160E070E0CB010E948811D1017A
:100ED00054966D937D938D939C93579728960FB658
:100EE000F894DEBF0FBECDBFDF91CF911F910F9160
:100EF000FF90EF90DF90CF90BF90AF909F908F903A
:100F00007F906F905F904F903F902F900895AF9299
:100F1000BF92CF92DF92EF92FF920F931F93FC014B
:100F2000A28CB38C0E94B0061F910F91FF90EF909E
:100F3000DF90CF90BF90AF9008958F929F92AF9225
:100F4000BF92CF92DF92EF92FF92CF93DF93EC01AB
:100F5000EE8DFF8DC080D180E280F380CEA2DFA233
:100F6000E8A6F9A6EC8DFD8D80819181A281B381E7
:100F70008AA79BA7ACA7BDA78EA89FA8A8ACB9AC11
:100F8000A5019401C701B6010E94541318162CF450
:100F90008EA29FA2A8A6B9A610C08AA89BA8ACA89A
:100FA000BDA8A5019401C701B6010E94F5118823CF
:100FB00024F48EA29FA2A8A6B9A6DF91CF91FF909C
:100FC000EF90DF90CF90BF90AF909F908F9008955B
:100FD0000F931F93CF938C01C1E06130710509F02D
:100FE000C0E0CC2339F0F80182AD811103C0C80103
:100FF0000E949D07F801C2AFCF911F910F910895F4
:101000000F931F93CF93DF93EC018B018AAD88235D
:1010100061F1888D998D8617970739F12C853D856B
:101020004E855F8560E070E0CB010E9488116C877F
:101030007D878E879F87288939894A895B8960E007
:1010400070E0CB010E948811688B798B8A8B9B8B17
:101050002C893D894E895F8960E070E0CB010E9458
:1010600088116C8B7D8B8E8B9F8B198F088FDF91F6
:10107000CF911F910F9108954F925F926F927F923F
:101080008F929F92AF92BF92CF92DF92EF92FF9298
:101090000F931F93CF93DF9300D000D0CDB7DEB76F
:1010A0004C0127013801A982BA82CB82DC82FC0183
:1010B000578F468F758F648F31A320A312AE12AA6B
:1010C00013AA14AA15AA80E090E0AFE7B3E486ABB8
:1010D00097ABA0AFB1AF84E690E0A0E0B0E086A708
:1010E00097A7A0ABB1AB6D8D7E8DC4010E940008A7
:1010F000AB8CBC8CCF88D88CE98CFA8C09811A8196
:101100002B813C81B301A201C4010E94B0060E9460
:10111000EA0DF40146A457A460A871A8DC01CB0134
:1011200084199509A609B70982A393A3A4A3B5A31B
:101130000F900F900F900F90DF91CF911F910F9113
:10114000FF90EF90DF90CF90BF90AF909F908F90E7
:101150007F906F905F904F9008958F929F92AF9283
:10116000BF92CF92DF92EF92FF920F931F93CF9394
:10117000DF93CDB7DEB7EF85F889A989BA899B8857
:101180008C888F929F921F92992493949F92BF93E1
:10119000AF93FF93EF930E943C080FB6F894DEBF25
:1011A0000FBECDBFDF91CF911F910F91FF90EF90B8
:1011B000DF90CF90BF90AF909F908F900895CF9287
:1011C000DF92EF92FF920F931F93CF93DF9341151E
:1011D0005105C1F06A018C01E62EF72EC0E0D0E087
:1011E000D7016D917D01D801ED91FC910190F081C5
:1011F000E02DC8010995892B39F02196CC16DD0622
:1012000079F702C0C0E0D0E0CE01DF91CF911F910D
:101210000F91FF90EF90DF90CF90089561157105C9
:1012200081F0FB0101900020E9F73197AF01461BE7
:10123000570BDC01ED91FC910280F381E02D0995C3
:10124000089580E090E00895DC01ED91FC9101901B
:10125000F081E02D09950895DC01ED91FC9102806B
:10126000F381E02D42E050E062E571E009950895D8
:101270008F929F92AF92BF92EF92FF920F931F9324
:10128000CF93DF93CDB7DEB7A1970FB6F894DEBF4B
:101290000FBECDBF7C01CB01BA0119A2223008F4E8
:1012A0002AE08E010F5D1F4F822E912CA12CB12CB4
:1012B000A50194010E942B11E62F622F732F842F1A
:1012C000952F01501109EA3010F4E05D01C0E95C8E
:1012D000D801EC93611571058105910549F7011558
:1012E000110591F0F80101900020E9F73197AF0165
:1012F000401B510BD701ED91FC910280F381E02D51
:10130000B801C701099502C080E090E0A1960FB630
:10131000F894DEBF0FBECDBFDF91CF911F910F912B
:10132000FF90EF90BF90AF909F908F900895CF92D5
:10133000DF92EF92FF920F931F93CF93DF93EC0115
:101340006A017B012115310541F4E881F9810190A1
:10135000F081E02D642F09951DC02A303105C1F4BC
:10136000772394F46DE20E9424098C0144275527C9
:10137000BA014C195D096E097F092AE0CE010E946D
:101380003809800F911F06C02AE00E94380902C068
:101390000E943809DF91CF911F910F91FF90EF903C
:1013A000DF90CF9008959A01AB01770F660B770B12
:1013B0000E94970908952115310549F4DC01ED914A
:1013C000FC910190F081E02D642F099508950E9411
:1013D000380908959A01462F50E060E070E00E94BD
:1013E000DB0908954F925F927F928F929F92AF9206
:1013F000BF92CF92DF92EF92FF920F931F93CF9302
:10140000DF9300D000D0CDB7DEB78C014A015B017D
:10141000722E9A01AB01C501B4010E94C613882344
:1014200031F065E571E0C8010E940E09D0C0750178
:101430006401E894F7F82FEF3FEF4FE75FE7C7014C
:10144000B6010E94C613811110C02FEF3FEF4FE786
:101450005FE7C701B6010E94F511181634F469E57B
:1014600071E0C8010E940E09B2C02FEF3FEF4FE7B5
:101470005FE4C501B4010E945413181634F46DE5FD
:1014800071E0C8010E940E09A2C02FEF3FEF4FE7A5
:101490005FECC501B4010E94F511882334F46DE5B9
:1014A00071E0C8010E940E0992C020E030E0A9015D
:1014B000C501B4010E94F511882354F46DE2C801FE
:1014C0000E9424097C01B7FAB094B7F8B09402C026
:1014D000E12CF12C772009F465C0D12C60E070E09C
:1014E00080E09FE320E030E040E251E40E94FA1106
:1014F000D394D710F7CF2AC020E030E040E251E487
:10150000C501B4010E9459134B015C010E94731282
:101510006B01E12CF12C2AE030E0B701A601C801F3
:101520000E94DB09480E591EC701B6010E94A21293
:101530009B01AC01C501B4010E9488114B015C0103
:101540007A947110D9CF842D952D41C09B01AC01A7
:10155000C501B4010E9489114B015C010E94731204
:1015600069837A838B839C830E94A2129B01AC01C6
:10157000C501B4010E9488114B015C012AE030E0F2
:1015800049815A816B817C81C8010E94DB096C0111
:101590006EE2C8010E9424098C0D9D1D2C014E0C89
:1015A0005F1CAACF20E030E040E05FE3C501B4015A
:1015B0000E9489110E947312AB01BC012AE030E045
:1015C000C8010E94DB092C014E0C5F1CBCCF0F90A0
:1015D0000F900F900F90DF91CF911F910F91FF907F
:1015E000EF90DF90CF90BF90AF909F908F907F90C3
:1015F0005F904F9008950E94F20908950F931F93F2
:10160000CF93DF93EC010E94F2098C01CE010E947E
:101610002C09800F911FDF91CF911F910F91089599
:101620000F931F93CF93DF93EC010E94EA0D68871D
:1016300079878A879B87E881F9810284F385E02D89
:10164000CE0109959923BCF40E94EA0D08851985FD
:101650002A853B85DC01CB01801B910BA20BB30BD0
:101660000C811D812E813F8180179107A207B3074E
:1016700010F38FEF9FEFDF91CF911F910F9108959E
:10168000EF92FF920F931F93CF93DF938C017B0117
:10169000C42F64E571E00E94C80FC7010E94100BBF
:1016A000992384F0D0E08C179D0761F0682FC80162
:1016B0000E943B10C7010E94100B99231CF08C174D
:1016C0009D07A1F7C801DF91CF911F910F91FF9066
:1016D000EF90089508954F925F926F927F92AF922C
:1016E000BF92CF92DF92EF92FF920F931F93CF930F
:1016F000DF93CDB7DEB72A970FB6F894DEBF0FBEE3
:10170000CDBF5C016B018AE0EAE1F1E0DE011196F8
:1017100001900D928A95E1F769817A81CB01770F6B
:10172000AA0BBB0B7727662720E83EE340E050E09A
:101730000E942B11F50131872087C216D30664F170
:101740007E01F3E0EF0EF11C01E010E00F2EF0E857
:101750004F2EFEE35F2E612C712CF02DF70161916D
:1017600071917F01CB01770FAA0BBB0B77276627FF
:10177000A30192010E942B11C216D30624F4F50195
:10178000318720870BC00F5F1F4F0530110531F7E0
:10179000F5013187208702C000E010E0000F111F23
:1017A000FE01E00FF11F818192812A960FB6F89415
:1017B000DEBF0FBECDBFDF91CF911F910F91FF9084
:1017C000EF90DF90CF90BF90AF907F906F905F9041
:1017D0004F900895CF93DF93EC0164E571E00E9490
:1017E000C80F81E090E09F838E83198618861B8640
:1017F0001A868FB780688FBFDF91CF910895EF92DF
:10180000FF920F931F93CF93DF93EC018B017A012B
:101810000E94DD0FB701CE010E946B0B9F838E8368
:10182000C8010E94F7106EE471E0C8010E944E10DA
:10183000882309F44BC010928000E1E8F0E01082A8
:1018400088E080838E819F81019719F48081816077
:1018500080838E819F81089729F4E1E8F0E0808100
:10186000826080838E819F818034910529F4E1E834
:10187000F0E08081836080838E819F81811591401B
:1018800029F4E1E8F0E08081846080838E819F818B
:101890008115944029F4E1E8F0E08081856080833F
:1018A00020E83EE3D7010E944D112E813F81032E97
:1018B000000C440B550B0E942B113B872A87309359
:1018C00089002093880082E080936F00DF91CF91A0
:1018D0001F910F91FF90EF90089570931301609303
:1018E000120108950E94550F08951F920F920FB68E
:1018F0000F9211242F933F934F935F936F937F9396
:101900008F939F93AF93BF93EF93FF93E091120157
:10191000F09113010995FF91EF91BF91AF919F91C4
:101920008F917F916F915F914F913F912F910F9088
:101930000FBE0F901F901895813039F018F082304B
:1019400051F0089510926E000895EFE6F0E0808166
:101950008D7F80830895E0E7F0E080818D7F808334
:1019600081E08093B000E1EBF0E08081887F8460CB
:1019700080831092B3000895CF93C82F80911401F3
:101980008C1307C0E3EAF0E084919FEF9093140179
:1019900001C08FEF0E949C0C60E08C2F0E94240FEE
:1019A000CF9108951F920F920FB60F9211242F938B
:1019B0003F934F935F936F937F938F939F93AF93D7
:1019C000BF93EF93FF938091720290917302A09165
:1019D0007402B0917502892B8A2B8B2B51F1809167
:1019E0006F02E0917002F0917102908189278083EB
:1019F0008091720290917302A0917402B09175026D
:101A0000181619061A061B06C4F4809172029091EA
:101A10007302A0917402B09175020197A109B109F6
:101A20008093720290937302A0937402B093750234
:101A300004C0809114010E94BC0CFF91EF91BF91F2
:101A4000AF919F918F917F916F915F914F913F9156
:101A50002F910F900FBE0F901F9018950895823010
:101A600000F5E82FF0E0EE0FFF1FEB5EFE4F7183F5
:101A70006083882319F0813049F00895E9E6F0E0A9
:101A800080818C7F482B4083E89A0895E9E6F0E056
:101A90008081440F551F440F551F837F482B40837F
:101AA000E99A08951F920F920FB60F9211242F9367
:101AB0003F934F935F936F937F938F939F93AF93D6
:101AC000BF93EF93FF93E0911501F09116010995F3
:101AD000FF91EF91BF91AF919F918F917F916F9106
:101AE0005F914F913F912F910F900FBE0F901F90DC
:101AF00018951F920F920FB60F9211242F933F93B8
:101B00004F935F936F937F938F939F93AF93BF9305
:101B1000EF93FF93E0911701F09118010995FF9160
:101B2000EF91BF91AF919F918F917F916F915F9155
:101B30004F913F912F910F900FBE0F901F901895CE
:101B40001F920F920FB60F9211242F933F938F93F2
:101B50009F93AF93BF938091770290917802A09169
:101B60007902B0917A023091760223E0230F2D376B
:101B700020F40196A11DB11D05C026E8230F029691
:101B8000A11DB11D20937602809377029093780275
:101B9000A0937902B0937A0280917B0290917C02AB
:101BA000A0917D02B0917E020196A11DB11D80938E
:101BB0007B0290937C02A0937D02B0937E02BF9142
:101BC000AF919F918F913F912F910F900FBE0F90EA
:101BD0001F9018952FB7F894609177027091780252
:101BE0008091790290917A022FBF0895789484B5FC
:101BF000826084BD84B5816084BD85B5826085BD09
:101C000085B5816085BDEEE6F0E0808181608083EE
:101C1000E1E8F0E0108280818260808380818160D1
:101C20008083E0E8F0E0808181608083E1EBF0E098
:101C3000808184608083E0EBF0E08081816080833C
:101C4000EAE7F0E080818460808380818260808325
:101C50008081816080838081806880831092C10050
:101C600008958E3008F08E5087709091190140E4ED
:101C7000949F90011124282B20937C00EAE7F0E048
:101C8000808180648083808186FDFDCF8091780093
:101C90002091790090E0922B08951F93CF93DF93CA
:101CA000182FEB0161E00E94E50E209729F460E017
:101CB000812F0E94240F56C0CF3FD10529F461E047
:101CC000812F0E94240F4EC0E12FF0E0EC55FF4F12
:101CD000E491E330B9F028F4E13051F0E23069F0FA
:101CE00035C0E73019F1E83049F1E43079F514C036
:101CF00084B5806884BDC7BD35C084B5806284BDAD
:101D0000C8BD30C0E0E8F0E0808180688083D09377
:101D10008900C093880026C0E0E8F0E080818062FE
:101D20008083D0938B00C0938A001CC0E0EBF0E06E
:101D3000808180688083C093B30014C0E0EBF0E042
:101D4000808180628083C093B4000CC0C038D1050C
:101D50002CF460E0812F0E94240F04C061E0812FE9
:101D60000E94240FDF91CF911F910895833069F075
:101D700028F48130B1F08230C1F008958730C9F085
:101D80008830E9F0843001F506C0E0E8F0E08081B9
:101D90008F7780830895E0E8F0E080818F7D8083F5
:101DA000089584B58F7784BD089584B58F7D84BDF3
:101DB0000895E0EBF0E080818F7780830895E0EB79
:101DC000F0E080818F7D80830895CF93DF9390E052
:101DD000FC01E854FF4F2491FC01E453FF4F849130
:101DE000882379F190E0880F991FFC01E651FF4F9D
:101DF000A591B491FC01E052FF4FC591D4916111BE
:101E00000CC09FB7F8948C91E22FE0958E238C93B1
:101E10002881E223E8839FBF14C0623061F49FB73A
:101E2000F8943C91822F809583238C93E881E22B58
:101E3000E8839FBF06C08FB7F894EC91E22BEC9338
:101E40008FBFDF91CF9108951F93CF93DF93282FFA
:101E500030E0F901EC55FF4F8491F901E854FF4F50
:101E60001491F901E453FF4FC491CC23D1F0D62F44
:101E700081110E94B60EEC2FF0E0EE0FFF1FE05232
:101E8000FF4FA591B4918FB7F894D11106C09C91E2
:101E9000E12FE095E923EC9303C0EC91E12BEC9367
:101EA0008FBFDF91CF911F910895FC0180819181B7
:101EB0000E9460140895CF93DF93EC01888199818B
:101EC000009711F00E946014198218821D821C82F2
:101ED0001B821A82DF91CF9108950F931F93CF93A6
:101EE000DF93EC018B016F5F7F4F888199810E94A6
:101EF000F814009731F0998388831B830A8381E06B
:101F000001C080E0DF91CF911F910F910895CF9391
:101F1000DF93FC0120813181232B29F02281338141
:101F20002617370770F4EC010E946D0F882361F0CB
:101F30008C819D81892B39F4E881F981108281E0BF
:101F400003C081E001C081E0DF91CF910895EF925D
:101F5000FF920F931F93CF93DF93EC017B018A01D4
:101F6000BA010E94870F811104C0CE010E945B0F4D
:101F700007C01D830C83B701888199810E94F115E8
:101F8000CE01DF91CF911F910F91FF90EF900895B7
:101F9000FC01118210821382128215821482611553
:101FA000710551F0FB0101900020E9F73197AF0175
:101FB000461B570B0E94A70F0895CF93DF93EC01A8
:101FC000FB018617970761F06081718161157105CA
:101FD00029F0448155810E94A70F02C00E945B0F27
:101FE000CE01DF91CF910895CF93DF93EC0161157E
:101FF000710559F0FB0101900020E9F73197AF011D
:10200000461B570B0E94A70F02C00E945B0FCE0118
:10201000DF91CF910895EF92FF920F931F93CF938B
:10202000DF93FC012481358161157105D1F04115E3
:102030005105C9F08B01EC017A01E20EF31EB701E4
:102040000E94870F882381F0288139818C819D81AE
:10205000B801820F931F0E94F115FD82EC8281E08E
:1020600003C080E001C081E0DF91CF911F910F910B
:10207000FF90EF900895CF93DF9300D0CDB7DEB7F8
:1020800069831A8241E050E0BE016F5F7F4F0E947A
:102090000B100F900F90DF91CF910895DC011496F3
:1020A0002D913C911597232B61F46115710539F041
:1020B00021E0FB0180818823C9F020E017C021E0E6
:1020C00015C06115710549F4DC01ED91FC9121E029
:1020D0008081882359F020E009C0FC018081918132
:1020E0000E94E81521E0892B09F020E0822F089555
:1020F000CF93DF93FC01248135814217530780F48D
:10210000FB01DC01CD91DC9160817181CE01840FF6
:10211000951F0E94F815009731F08C1B9D0B05C090
:102120008FEF9FEF02C08FEF9FEFDF91CF91089568
:1021300040E050E00E9478100895BF92CF92DF9265
:10214000EF92FF920F931F93CF93DF937C016B016C
:102150008A01E9012417350720F4812F8901C42F52
:10216000D82F64E571E0C7010E94C80FD60114960C
:102170008D919C91159708171907D0F48C179D071E
:1021800008F4EC01D601ED91FC911197EC0FFD1FC5
:10219000B08010824D915C91BA01600F711FC70130
:1021A0000E94F40FF60180819181C80FD91FB88277
:1021B000C701DF91CF911F910F91FF90EF90DF90BA
:1021C000CF90BF900895CF93DF93FC01C081D18160
:1021D000209751F08881882339F090E00E94CF1534
:1021E000899388818111F9CFDF91CF910895CF93A1
:1021F000DF93FC01C081D181209751F08881882331
:1022000039F090E00E94D715899388818111F9CF28
:10221000DF91CF910895FC0180819181009719F0A1
:102220000E94C215089560E070E0CB01089597FB0D
:10223000072E16F4009407D077FD09D00E945F1195
:1022400007FC05D03EF4909581959F4F08957095B9
:1022500061957F4F0895A1E21A2EAA1BBB1BFD01B9
:102260000DC0AA1FBB1FEE1FFF1FA217B307E40775
:10227000F50720F0A21BB30BE40BF50B661F771FCD
:10228000881F991F1A9469F76095709580959095AD
:102290009B01AC01BD01CF0108950E947911B7FFE8
:1022A0000895821B930B08950E947911A59F900DAC
:1022B000B49F900DA49F800D911D11240895AA1B19
:1022C000BB1B51E107C0AA1FBB1FA617B70710F021
:1022D000A61BB70B881F991F5A95A9F78095909553
:1022E000BC01CD010895EE0FFF1F0590F491E02D84
:1022F0000994A29FB001B39FC001A39F700D811DDF
:102300001124911DB29F700D811D1124911D0895FE
:102310005058BB27AA270E94A0110C941A130E94A0
:102320000C1338F00E94131320F039F49F3F19F476
:1023300026F40C9409130EF4E095E7FB0C940313B8
:10234000E92F0E942B1358F3BA176207730784070B
:10235000950720F079F4A6F50C944D130EF4E09552
:102360000B2EBA2FA02D0B01B90190010C01CA014F
:10237000A0011124FF27591B99F0593F50F4503EFA
:1023800068F11A16F040A22F232F342F4427585FEC
:10239000F3CF469537952795A795F0405395C9F704
:1023A0007EF41F16BA0B620B730B840BBAF09150BC
:1023B000A1F0FF0FBB1F661F771F881FC2F70EC05B
:1023C000BA0F621F731F841F48F48795779567952E
:1023D000B795F7959E3F08F0B0CF9395880F08F01A
:1023E0009927EE0F9795879508950E94DF1208F4BC
:1023F00081E008950E940E120C941A130E94131388
:1024000058F00E940C1340F029F45F3F29F00C941F
:10241000031351110C944E130C9409130E942B13A7
:1024200068F39923B1F3552391F3951B550BBB2703
:10243000AA2762177307840738F09F5F5F4F220F48
:10244000331F441FAA1FA9F335D00E2E3AF0E0E83F
:1024500032D091505040E695001CCAF72BD0FE2F89
:1024600029D0660F771F881FBB1F2617370748071D
:10247000AB07B0E809F0BB0B802DBF01FF279358D5
:102480005F4F3AF09E3F510578F00C9403130C9483
:102490004E135F3FE4F3983ED4F3869577956795A6
:1024A000B795F7959F5FC9F7880F911D969587950A
:1024B00097F90895E1E0660F771F881FBB1F621729
:1024C00073078407BA0720F0621B730B840BBA0BE7
:1024D000EE1F88F7E09508950E9473126894B11179
:1024E0000C944E1308950E94331388F09F5798F070
:1024F000B92F9927B751B0F0E1F0660F771F881F09
:10250000991F1AF0BA95C9F714C0B13091F00E9422
:102510004D13B1E008950C944D13672F782F882741
:10252000B85F39F0B93FCCF3869577956795B39549
:10253000D9F73EF490958095709561957F4F8F4FB8
:102540009F4F0895E89409C097FB3EF490958095BD
:10255000709561957F4F8F4F9F4F9923A9F0F92F69
:1025600096E9BB279395F695879577956795B795E7
:10257000F111F8CFFAF4BB0F11F460FF1BC06F5FCD
:102580007F4F8F4F9F4F16C0882311F096E911C0DF
:10259000772321F09EE8872F762F05C0662371F000
:1025A00096E8862F70E060E02AF09A95660F771F14
:1025B000881FDAF7880F9695879597F90895990FF0
:1025C0000008550FAA0BE0E8FEEF16161706E807FD
:1025D000F907C0F012161306E407F50798F0621B1E
:1025E000730B840B950B39F40A2661F0232B242BF3
:1025F000252B21F408950A2609F4A140A6958FEF12
:10260000811D811D089597F99F6780E870E060E063
:1026100008959FEF80EC089500240A94161617067B
:1026200018060906089500240A94121613061406C3
:1026300005060895092E0394000C11F4882352F026
:10264000BB0F40F4BF2B11F460FF04C06F5F7F4FDE
:102650008F4F9F4F089557FD9058440F551F59F0C5
:102660005F3F71F04795880F97FB991F61F09F3F7F
:1026700079F087950895121613061406551FF2CFA8
:102680004695F1DF08C0161617061806991FF1CFF8
:1026900086957105610508940895E894BB2766271F
:1026A0007727CB0197F908950E94DF1208F48FEF86
:1026B00008950E946C130C941A130E940C1338F0A6
:1026C0000E94131320F0952311F00C9403130C9423
:1026D000091311240C944E130E942B1370F3959F31
:1026E000C1F3950F50E0551F629FF001729FBB2709
:1026F000F00DB11D639FAA27F00DB11DAA1F649FA5
:102700006627B00DA11D661F829F2227B00DA11D57
:10271000621F739FB00DA11D621F839FA00D611DDD
:10272000221F749F3327A00D611D231F849F600DFE
:10273000211D822F762F6A2F11249F5750409AF027
:10274000F1F088234AF0EE0FFF1FBB1F661F771FB3
:10275000881F91505040A9F79E3F510580F00C947E
:1027600003130C944E135F3FE4F3983ED4F3869525
:1027700077956795B795F795E7959F5FC1F7FE2B1E
:10278000880F911D9695879597F908950E94DF12FD
:10279000880B990B0895CF93DF938230910510F445
:1027A00082E090E0E0918102F091820220E030E04E
:1027B000C0E0D0E0309711F14081518148175907AE
:1027C000C0F04817590761F482819381209719F06E
:1027D0009B838A832BC0909382028093810226C0C0
:1027E0002115310519F04217530718F49A01BE015B
:1027F000DF01EF010280F381E02DDCCF21153105EF
:1028000009F1281B390B2430310590F412968D9173
:102810009C9113976115710521F0FB0193838283CD
:1028200004C09093820280938102FD01329644C0DD
:10283000FD01E20FF31F81939193225031092D93F3
:102840003C933AC020917F0230918002232B41F4C7
:1028500020910201309103013093800220937F0286
:1028600020910001309101012115310541F42DB76E
:102870003EB74091040150910501241B350BE091B6
:102880007F02F0918002E217F307A0F42E1B3F0BAA
:102890002817390778F0AC014E5F5F4F24173507D2
:1028A00048F04E0F5F1F5093800240937F02819348
:1028B000919302C0E0E0F0E0CF01DF91CF91089565
:1028C0000F931F93CF93DF93009709F48CC0FC0103
:1028D00032971382128200918102109182020115B7
:1028E000110581F420813181820F931F20917F0295
:1028F000309180022817390779F5F0938002E09330
:102900007F0271C0D80140E050E0AE17BF0750F41D
:1029100012962D913C911397AD012115310509F1C6
:10292000D901F3CF9D01DA01338322836081718164
:10293000860F971F8217930769F4EC01288139816C
:10294000260F371F2E5F3F4F318320838A819B8163
:1029500093838283452B29F4F0938202E0938102D2
:1029600042C01396FC93EE931297ED014991599151
:102970009E01240F351FE217F30771F480819181C6
:10298000840F951F029611969C938E93828193815A
:1029900013969C938E931297E0E0F0E0D801129684
:1029A0008D919C911397009719F0F8018C01F6CF47
:1029B0008D919C9198012E5F3F4F820F931F209124
:1029C0007F02309180022817390769F4309729F483
:1029D000109282021092810202C01382128210931E
:1029E000800200937F02DF91CF911F910F91089594
:1029F000A0E0B0E0EEEFF4E10C948E17EC0100974C
:102A000021F4CB010E94CB13B8C0FC01E60FF71FE5
:102A10009C0122503109E217F30708F4ACC0D90138
:102A20000D911C91119706171707B0F0053011058D
:102A300008F49FC0C80104978617970708F499C047
:102A400002501109061B170B019311936D937C9390
:102A5000CF010E9460148DC05B01A01AB10A4C0125
:102A6000800E911EA0918102B091820240E050E060
:102A7000E12CF12C109709F44AC0A815B905D1F53D
:102A80006D907C901197630182E0C80ED11CCA142E
:102A9000DB0480F1A3014A195B096A0182E0C80ED8
:102AA000D11C1296BC9012971396AC91B5E0CB1640
:102AB000D10440F0B282A38351834083D9016D9346
:102AC0007C930AC00E5F1F4FC301800F911FF90155
:102AD00091838083EB2DFA2FE114F10431F0D701BB
:102AE0001396FC93EE93129744C0F0938202E09306
:102AF00081023FC08D919C9111974817590708F4A6
:102B0000AC017D0112960D90BC91A02DB3CF8091A8
:102B10007F029091800288159905E1F446175707C6
:102B2000C8F48091000190910101009741F48DB7A4
:102B30009EB74091040150910501841B950BE81745
:102B4000F907C8F4F0938002E0937F02F9017183E2
:102B500060830FC0CB010E94CB137C01009759F01A
:102B6000A801BE010E94DF15CE010E946014C701BA
:102B700004C0CE0102C080E090E0CDB7DEB7EEE049
:102B80000C94AA17662777270C94121691110C94AF
:102B90006F17803219F089508550C8F70895911148
:102BA000089581548A5108F4805E855A08959111E0
:102BB000089581568A5108F4805285580895FB0182
:102BC000DC0102C001900D9241505040D8F70895A9
:102BD000FB01DC018D91019080190110D9F3990B53
:102BE0000895FB01DC0101900D920020E1F70895AA
:102BF000FB0151915523A9F0BF01DC014D9145170F
:102C00004111E1F759F4CD010190002049F04D91B7
:102C100040154111C9F3FB014111EFCF81E090E074
:102C200001970895A0E0B0E0E8E1F6E10C948E177A
:102C3000EC017B016115710519F0DB018D939C930B
:102C40008E010F5F1F4F7880872D90E00E94C61580
:102C5000892B11F0E801F4CFBDE27B1205C00F5FB4
:102C60001F4F7980C1E008C0EBE27E1204C08E01E4
:102C70000E5F1F4F7980C0E06801F1E0CF1AD108E4
:102C800043E050E060E770E0C6010E947217892BB4
:102C9000F1F4680122E0C20ED11C45E050E06BE681
:102CA00070E0C6010E947217892B21F4680187E049
:102CB000C80ED11CE114F10419F0D701CD92DC92B9
:102CC000C111FFC060E070E080E89FE703C143E00E
:102CD00050E068E670E0C6010E947217892B51F43B
:102CE000E114F10409F4F2C00E5F1F4FF7011183E4
:102CF0000083ECC0680160E070E0CB0100E010E010
:102D0000F601D0EDD70DDA3058F52C2F2260622E67
:102D10002C2F2870C2FF05C0211128C00F5F1F4F44
:102D200025C0222311F001501109A5E0B0E09B015C
:102D3000AC010E9454114B015C01880C991CAA1C27
:102D4000BB1CC501B4016D0F711D811D911D68393A
:102D5000A9E97A078A07A9E19A0740F0C66005C089
:102D6000DE3F51F4C3FD44C0C8606C2EBFEFCB1AE8
:102D7000DB0A7080C62DC4CF2D2F2F7D2531C1F5E4
:102D800040814D3211F4C06106C04B3221F03196C2
:102D900021E030E006C03296D60111964C9122E037
:102DA00030E0A0EDA40FAA3018F0E21BF30B20C016
:102DB00040E050E04038BCE05B075CF49A01220F31
:102DC000331F220F331F420F531F440F551F4A0F4B
:102DD000511D3196DF0111972C91A0EDA20FAA3061
:102DE00048F3C4FF03C0519541955109040F151FC5
:102DF000C1FF07C0E114F10421F03197D701ED9331
:102E0000FC930E94A212C370C33019F06B017C01C5
:102E100006C06B017C01F7FAF094F7F8F09420E01B
:102E200030E0A901C701B6010E94F511882309F419
:102E300045C017FF06C0119501951109C7E8D0E0FC
:102E400002C0CFE9D0E05E01B8E1AB1AB10846019B
:102E5000BE2DAF2D90E2E92EF12C0E151F0584F04A
:102E6000FE012591359145915491B4018B2F9A2FF4
:102E70000E9459134B01B82FA92F0E191F09EDCF2E
:102E80002497F594E794CA15DB0539F76401EB2E16
:102E9000FA2E8E2D880F8F2D881F8F3F49F020E04E
:102EA00030E0A901C701B6010E94F511811106C0E9
:102EB00082E290E09093840280938302C701B6017E
:102EC00009C060E070E080E89FEF04C060E070E05F
:102ED00080EC9FE7CDB7DEB7EEE00C94AA179927F8
:102EE00088270895FB01DC014150504088F08D9106
:102EF00081341CF08B350CF4805E659161341CF0DC
:102F00006B350CF4605E861B611171F3990B0895AB
:102F1000881BFCCF2F923F924F925F926F927F92CD
:102F20008F929F92AF92BF92CF92DF92EF92FF92D9
:102F30000F931F93CF93DF93CDB7DEB7CA1BDB0B85
:102F40000FB6F894DEBF0FBECDBF09942A8839882A
:102F500048885F846E847D848C849B84AA84B98431
:102F6000C884DF80EE80FD800C811B81AA81B9813D
:102F7000CE0FD11D0FB6F894DEBF0FBECDBFED0151
:102F8000089510E0CDE7D0E004C0FE010E94731167
:0C2F90002196CE37D107C9F7F894FFCF87
:102F9C000000850220000000803ECDCC4C3D00009E
:102FAC00803F6A0BFF2E0D2E0D0101000800400022
:102FBC0000010004000000004201DF08D6002001DF
:102FCC00A800C200B400000000008F02413A004289
:102FDC003A006B703A006B693A006B643A004354E8
:102FEC0043000D0A006E616E00696E66006F7666B6
:022FFC000000D3
:00000001FF
